:10000000802983120313AC00003003178F00031301
:100010002C0C7F39223E03178D0003188F0A83169C
:1000200003178C170C1400000000831203132C1804
:100030001D2803170C087F390800831203170C0DC5
:100040000E0D080004000000000000000001000088
:100050000000000002000000000000000800000096
:10006000000000000100000002000000000200008B
:10007000000000000000040000000000010000007B
:10008000010000000100000000000200000000006C
:100090000000080000000000000400000000000054
:1000A000010000000000000000000000010000004E
:1000B0000000000805000000000000000100000032
:1000C000000000000000100000000000010000001F
:1000D000000001000000000000000200000000001D
:1000E000040000000000800000000000000000008C
:1000F0000200000000000001000000008312031352
:10010000AC00003003178F0003132C0C7F399F3E87
:1001100003178D0003188F0A831603178C170C140E
:1001200000000000831203132C189A2803170C08F0
:100130007F390800831203170C0D0E0D0800000014
:10014000000000008000010000000000010000002D
:10015000000000000000000000000000000401009A
:1001600000008000000000000000000010000000FF
:100170000000000800000100000010000000000066
:1001800002000000000000000100000000008000EC
:10019000000000000000100000000000000001004E
:1001A000000000000001000400000000000000004A
:1001B0000800000000000000000000000000000037
:1001C000000000000000000000000000000000002F
:1001D0000000000000000000000000000008000017
:1001E0000000000000010008000000000000000006
:1001F00010000000000001000000080000000000E6
:1002000000020000000000000000000000020000EA
:10021000000080000000000000010000000000005D
:100220000000000000000000800000000000090045
:100230000000000000000000000000000100831228
:100240000313AC00013003178F0003132C0C7F390C
:10025000403E03178D0003188F0A831603178C176F
:100260000C1400000000831203132C183B29031701
:100270000C087F390800831203170C0D0E0D0800BF
:10028000000000001000000000000000000002005C
:100290000000000000010000000000080000000055
:1002A0000000000000000100000000040000000049
:1002B0000300000000000000010000000400000036
:1002C0000000000002000000000000000000040028
:1002D0000000000000020000000000000400000018
:1002E0000000000000000000000000000800000006
:1002F00001000000000008000100000800000000EC
:10030000831603138501FF30860087019F010230A9
:10031000810083128701103085000130C500A001E3
:1003200008308312031320020318A2292D3020075E
:100330008400831380013D302007840083138001F3
:10034000A00A902983120313A101A201A301C601EF
:10035000C72583120313C700A624A2228312031306
:10036000A1080319A222E722BA22013A031DBE29DD
:100370000430831203132102031CA10ABA22003A9B
:10038000031DC72983120313A101A201A3011F2387
:10039000013A031DD7291E30831203132302031CC5
:1003A000A30A1E3083120313230203189A224B233D
:1003B000013A031DE3290330831203134502031896
:1003C000E329C50A17234B23023A031DEE298312A2
:1003D0000313C5080319EE29C5031723AC23013AFB
:1003E000031DF929831203134608013CC600A62405
:1003F0001723D823013A031D132A32308312031323
:100400002202031CA20A3230831203132202031CAD
:10041000132AA2014708013CC700A6248312031334
:100420004708DE259A220424013A03194022302489
:10043000013A03196E225B24FE2404308312031355
:100440002102031C262A46030319ED249A25831250
:100450000313451C871245188716C51C0712C518BB
:100460000716A624C0240430831203132102031CA0
:10047000AE29460BAE29DE2483120313A101AE2957
:1004800083120313A501A60107308312031326026A
:1004900003186B2AED249A25CF2483120313A70196
:1004A00008308312031327020318652A80302507BA
:1004B000012083120313A4003D3027078400831317
:1004C00024088000A50AA70A502A9A25CF2483125F
:1004D0000313A60A442AED249A25CF2C8312031372
:1004E000A5010A308312031325020318972AED246D
:1004F0009A25CF2483120313A60108308312031315
:1005000026020318912A383026070120831203138C
:10051000A4003D3026078400831324088000A60A27
:100520007D2A9A25CF2483120313A50A712AED246C
:100530009A25CF2C831203130512DE248312031392
:100540000516172B83120313A4010830831203131B
:1005500024020318B92A2D302407840083130008CD
:10056000A500353024078400831325088000A40AE1
:10057000A52A0800013083120313A7000130A6004A
:10058000A40108308312031324020318DE2A353035
:100590002407840083130008A5002D30240784005D
:1005A000831325080006031DA70183120313A50862
:1005B000031DA60183120313A40AC12A8312031385
:1005C00026030319A70183120313270808008312C7
:1005D0000313A40108308312031324020318FC2A16
:1005E00010302404850000002D302407840083137C
:1005F00006098000A40AEA2A0800013083120313C6
:10060000A500A40108308312031324020318132B3E
:100610002D302407840083130008031DA5018312D5
:100620000313A40A022B8312031325080800FD22DA
:10063000013A03191E2BE722C024172B08000130B2
:1006400083120313A500A4010830831203132402AC
:100650000318472B2408033A031D3A2B2D3083122D
:1006600003132407840083130008C03A0319432BA3
:10067000A501432B2D308312031324078400831319
:100680000008031DA50183120313A40A242B83125F
:10069000031325080800013083120313A500A601E7
:1006A000A40108308312031324020318732B2408B7
:1006B000031D662B2D30831203132407840083133C
:1006C0000008203A03196F2BA5016F2B2D308312E0
:1006D00003132407840083130008031DA50183125C
:1006E0000313A40A512B83120313250B7A2B023018
:1006F000A600A82B013083120313A500A401083023
:100700008312031324020318A22B2408033A031DA7
:10071000952B2D30831203132407840083130008C4
:10072000203A03199E2BA5019E2B2D308312031313
:100730002407840083130008031DA50183120313FB
:10074000A40A7F2B83120313250BA82B0130A600CC
:100750008312031326080800013083120313A50037
:10076000A40108308312031324020318D42B240895
:10077000043A031DC72B2D30831203132407840072
:1007800083130008083A0319D02BA501D02B2D3074
:10079000831203132407840083130008031DA5019B
:1007A00083120313A40AB12B831203132508080034
:1007B000013083120313A500A40108308312031330
:1007C00024020318002C2408063A031DF32B2D30B5
:1007D000831203132407840083130008083A0319C3
:1007E000FC2BA501FC2B2D3083120313240784005E
:1007F00083130008031DA50183120313A40ADD2B34
:100800008312031325080800013083120313A50087
:10081000A401083083120313240203182C2C24088B
:10082000073A031D1F2C2D30831203132407840065
:1008300083130008083A0319282CA501282C2D3011
:10084000831203132407840083130008031DA501EA
:1008500083120313A40A092C83120313250808002A
:10086000013083120313A500A4010830831203137F
:1008700024020318572C2408013A031D4A2C2D305A
:100880008312031324078400831300030319532CDA
:10089000A501532C2D3083120313240784008313E6
:1008A0000008031DA50183120313A40A352C83122B
:1008B00003132508080083120313341CA52C3308E6
:1008C000103A031D652C2030B30083120313330844
:1008D000803A031D6E2C2030B200B3018312031343
:1008E0003108023A031D772C1030AE00B10183129B
:1008F00003133208023A031D802C1030B000B201FD
:10090000831203133308023A031D892C4030B200CE
:10091000B301831203133408033A031D932C4030B0
:10092000B3000130B400831203133008083A031DEA
:100930009C2C4030B100B001831203132E08083AFA
:10094000031DA52C1030AD00AE0108008312031367
:10095000460BAC2C8717AF2C83120313871383121B
:100960000313470BB52C0717B82C83120313071377
:1009700008008312031381010B110B1DBD2C08000D
:1009800083120313A4010A308312031324020318F1
:10099000CE2CB92483120313A40AC32C080083129B
:1009A0000313A80132308312031328020318DD2C2D
:1009B000B92483120313A80AD22C0800831203134C
:1009C000A40164308312031324020318EC2CB9240D
:1009D00083120313A40AE12C080083120313AC0151
:1009E0000830831203132C020318FD2C3D302C0712
:1009F000840083138001AC0AF02C0800ED248312DC
:100A00000313A60108308312031326020318992D3D
:100A1000AA01AB012D302607840083130008A4002F
:100A2000A50108308312031325020318952DA41F76
:100A30008B2DA701083083120313270203188B2D77
:100A400027082A07A900A801260803193D2D013A05
:100A50000319452D033A03194E2D013A0319562D5A
:100A6000073A03195F2D013A0319682D033A031958
:100A7000702D013A0319792D812D83120313290852
:100A80007E2083120313A800812D403083120313AC
:100A900029077E2083120313A800812D83120313DC
:100AA0002908012083120313A800812D80308312AE
:100AB000031329077E2083120313A800812DC03061
:100AC0008312031329077E2083120313A800812DAC
:100AD0008312031329081F2183120313A800812DF9
:100AE00040308312031329071F2183120313A80028
:100AF000812D403083120313290701208312031331
:100B0000A8003D30831203132707840083132808AD
:100B10008004A70A1A2D031083120313A40D0830B2
:100B2000AA070318AB0AA50A112D83120313A60AFC
:100B3000022D0800083083120313A8008312031348
:100B4000A8080319C02D3C3028078400831300082F
:100B5000A900AA010530831203132A020318BA2D33
:100B6000291E8710291A871407150310A90D0711CC
:100B7000AA0AAA2D0000000083120313A8039E2DC9
:100B8000831203130714000000000710080001304F
:100B9000831203178D0083168C130C1483120C0818
:100BA0000313A40003178D010313A4080319DA2DFE
:100BB0000130A400831203132408080083120313D6
:100BC000A400831603178C1CE72D0000E12D0130D3
:100BD000831203178D000313240803178C00831658
:100BE0008C130C1555308D00AA308D008C140C110F
:020BF0000800FB
:02400E003A3F37
:00000001FF
