:10000000802983120313AB00003003178F00031302
:100010002B0C7F39223E03178D0003188F0A83169D
:1000200003178C170C1400000000831203132B1805
:100030001D2803170C087F390800831203170C0DC5
:100040000E0D08000000000000008000010000000C
:10005000000001000000000000000000000000009F
:10006000000000040100000080000000000000000B
:100070000000100000000000000800000100000067
:10008000100000000100000000000200000000005D
:100090000000080000000000000400000000000054
:1000A000010000000000000000000000010000004E
:1000B0000000000805000000000000000100000032
:1000C000000000000000100000000000010000001F
:1000D000000001000000000000000200000000001D
:1000E000040000000000800000000000000000008C
:1000F0000200000000000001000000008312031352
:10010000AB00003003178F0003132B0C7F399F3E89
:1001100003178D0003188F0A831603178C170C140E
:1001200000000000831203132B189A2803170C08F1
:100130007F390800831203170C0D0E0D0800000014
:10014000020000000000000001000000000080002C
:10015000000000000000100000000000000001008E
:10016000000000000001000400000000000000008A
:100170000800000000000000000000000000040073
:10018000000000000000000100000000000002006C
:100190000000000000000800000000000000010056
:1001A000000002000000000200000000000000004B
:1001B0000400000000000100000001000000000039
:1001C000000000000000000000000000000000002F
:1001D0000000000000000000000000000008000017
:1001E0000000000000010008000000000000000006
:1001F00010000000000001000000080000000000E6
:1002000000020000000000000000000000020000EA
:10021000000080000000000000010000000000005D
:100220000000000000000000800000000000090045
:100230000000000000000000000000000100831228
:100240000313AB00013003178F0003132B0C7F390E
:10025000403E03178D0003188F0A831603178C176F
:100260000C1400000000831203132B183B29031702
:100270000C087F390800831203170C0D0E0D0800BF
:10028000000000001000000000000000000002005C
:100290000000000000010000000000080000000055
:1002A0000000000000000100000000040000000049
:1002B0000300000000000000010000000400000036
:1002C0000000000002000000000000000000040028
:1002D0000000000000020000000000000400000018
:1002E0000000000000000000000000000800000006
:1002F00001000000000008000100000800000000EC
:10030000831603138501FF30860087019F010230A9
:10031000810083128701103085000130C400A001E4
:1003200008308312031320020318A2292C3020075F
:100330008400831380013C302007840083138001F4
:10034000A00A902983120313A101A201482283125B
:100350000313A108031948228D226022013A031DCC
:10036000B7290430831203132102031CA10A60225F
:10037000003A031DBE2983120313A101C522013ACD
:10038000031DCA298312031305121A2483120313AF
:100390000516BD22F122013A031DD629033083122E
:1003A000031344020318D629C40ABD22F122023ADB
:1003B000031DE12983120313C4080319E129C403AF
:1003C000BD225223013A031DEB2983120313220895
:1003D000013CA200BD227E23013A03191A22AA235E
:1003E0003A240430831203132102031CFA29220346
:1003F00003192924D62483120313441C871244189A
:100400008716C41C0712C4180716220B092A87175F
:100410000C2A831203138713FC2304308312031363
:100420002102031CA729220BA7291A2483120313D4
:10043000A101A72983120313A401A5010730831288
:10044000031325020318452A2924D6240B248312DA
:100450000313A601083083120313260203183F2A50
:1004600080302407012083120313A3003C302607A9
:100470008400831323088000A40AA60A2A2AD6240B
:100480000B2483120313A50A1E2A2924D6240B2C1D
:1004900083120313A30108308312031323020318EA
:1004A0005F2A2C302307840083130008A400343013
:1004B00023078400831324088000A30A4B2A080022
:1004C000013083120313A6000130A500A3010830F8
:1004D0008312031323020318842A34302307840071
:1004E00083130008A4002C302307840083132408FE
:1004F0000006031DA60183120313A408031DA50112
:1005000083120313A30A672A831203132503031913
:10051000A601831203132608080083120313A30104
:1005200008308312031323020318A22A1030230475
:10053000850000002C302307840083130609800007
:10054000A30A902A0800013083120313A400A30118
:1005500008308312031323020318B92A2C3023070F
:10056000840083130008031DA40183120313A30A4C
:10057000A82A8312031324080800A322013A0319AE
:10058000C42A8D22FC23BD2A0800013083120313E4
:10059000A400A30108308312031323020318ED2AD9
:1005A0002308033A031DE02A2C3083120313230788
:1005B000840083130008C03A0319E92AA401E92A38
:1005C0002C30831203132307840083130008031DB8
:1005D000A40183120313A30ACA2A83120313240853
:1005E0000800013083120313A400A501A301083001
:1005F0008312031323020318192B2308031D0C2B4A
:100600002C30831203132307840083130008203A3D
:100610000319152BA401152B2C3083120313230768
:10062000840083130008031DA40183120313A30A8B
:10063000F72A83120313240B202B0230A5004E2B24
:10064000013083120313A400A301083083120313A3
:1006500023020318482B2308033A031D3B2B2C309D
:10066000831203132307840083130008203A03191D
:10067000442BA401442B2C30831203132307840042
:1006800083130008031DA40183120313A30A252B5F
:1006900083120313240B4E2B0130A5008312031386
:1006A00025080800013083120313A400A3010830B9
:1006B00083120313230203187A2B2308043A031D21
:1006C0006D2B2C308312031323078400831300083F
:1006D000083A0319762BA401762B2C3083120313CE
:1006E0002307840083130008031DA401831203134E
:1006F000A30A572B83120313240808000130831226
:100700000313A400A3010830831203132302031868
:10071000A62B2308063A031D992B2C3083120313B2
:100720002307840083130008083A0319A22BA401AD
:10073000A22B2C3083120313230784008313000899
:10074000031DA40183120313A30A832B8312031333
:100750002408080083120313331CF42B3208103AC8
:10076000031DB42B2030B200831203133208803AE9
:10077000031DBD2B2030B100B201831203133008DA
:10078000023A031DC62B1030AD00B00183120313D3
:100790003108023A031DCF2B1030AF00B101831294
:1007A00003133208023A031DD82B4030B100B201C6
:1007B000831203133308033A031DE22B4030B200C7
:1007C0000130B300831203132F08083A031DEB2BEB
:1007D0004030B000AF01831203132D08083A031D07
:1007E000F42B1030AC00AD0108008312031381011B
:1007F0000B110B1DF92B080083120313A3010A3000
:1008000083120313230203180A2CF5238312031304
:10081000A30AFF2B080083120313A70132308312AF
:10082000031327020318192CF52383120313A70AB5
:100830000E2C080083120313A301643083120313E8
:1008400023020318282CF52383120313A30A1D2C5B
:10085000080083120313AB010830831203132B0229
:100860000318392C3C302B07840083138001AB0A1A
:100870002C2C0800292483120313A50108308312AD
:10088000031325020318D52CA901AA012C30250732
:10089000840083130008A300A4010830831203130B
:1008A00024020318D12CA31FC72CA60108308312E1
:1008B000031326020318C72C26082907A800A7013E
:1008C00025080319792C013A0319812C033A0319DD
:1008D000892C013A0319922C073A03199B2C013AEF
:1008E0000319A42C033A0319AC2C013A0319B52CB3
:1008F000BD2C831203132808012083120313A700C1
:10090000BD2C8312031328087E2083120313A70033
:10091000BD2C40308312031328077E20831203135B
:10092000A700BD2C80308312031328077E2083127A
:100930000313A700BD2CC0308312031328077E20A9
:1009400083120313A700BD2C8312031328081F2151
:1009500083120313A700BD2C403083120313280712
:100960001F2183120313A700BD2C403083120313F1
:100970002807012083120313A7003C3083120313BE
:1009800026078400831327088004A60A562C031028
:1009900083120313A30D0830A9070318AA0AA40A97
:1009A0004D2C83120313A50A3E2C08000830831235
:1009B0000313A70083120313A7080319FC2C3B3071
:1009C0002707840083130008A800A90105308312BB
:1009D000031329020318F62C281E8710281A8714DF
:1009E00007150310A80D0711A90AE62C0000000046
:1009F00083120313A703DA2C8312031307140000D6
:060A0000000007100800D1
:02400E003A3F37
:00000001FF
