:10000000802983120313AA00003003178F00031303
:100010002A0C7F39223E03178D0003188F0A83169E
:1000200003178C170C1400000000831203132A1806
:100030001D2803170C087F390800831203170C0DC5
:100040000E0D08000000000000008000010000000C
:10005000000001000000000000000000000000009F
:10006000000000040100000080000000000000000B
:100070000000100000000000000800000100000067
:100080001000000000000000000000000000000060
:100090000000080000000000000400000000000054
:1000A000010000000000000000000000010000004E
:1000B0000000000805000000000000000100000032
:1000C000000000000000100000000000010000001F
:1000D000000001000000000000000200000000001D
:1000E0000400000000000000040000000000000008
:1000F0000100000000000000010000008312031353
:10010000AA00003003178F0003132A0C7F399F3E8B
:1001100003178D0003188F0A831603178C170C140E
:1001200000000000831203132A189A2803170C08F2
:100130007F390800831203170C0D0E0D0800000014
:10014000020000000000000001000000000080002C
:10015000000000000000100000000000000001008E
:10016000000000000001000400000000000000008A
:100170000800000000000000000000000000040073
:10018000000000000000000100000000000002006C
:100190000000000000000800000000000000000057
:1001A00000000000800000020000000000000000CD
:1001B0000400000000000100000001000000000039
:1001C000000000000000000000000000000000002F
:1001D0000000000000000000000000000008000017
:1001E0000000000000010008000000000000000006
:1001F00010000000000001000000080000000000E6
:1002000000020000000000000000000000020000EA
:10021000000080000000000000010000000000005D
:100220000000000000000000800000000000090045
:100230000000000000000000000000000100831228
:100240000313AA00013003178F0003132A0C7F3910
:10025000403E03178D0003188F0A831603178C176F
:100260000C1400000000831203132A183B29031703
:100270000C087F390800831203170C0D0E0D0800BF
:10028000000000001000000000000000000002005C
:100290000000000000010000000000080000000055
:1002A0000000000000000100000000040000000049
:1002B0000300000000000000010000000400000036
:1002C0000000000002000000000000000000040028
:1002D0000000000000020000000000000400000018
:1002E0000000000000000000000000000800000006
:1002F00001000000000008000100000800000000EC
:10030000831603138501FF30860087019F010230A9
:10031000810083128701103085000130C300A001E5
:1003200008308312031320020318A2292B30200760
:100330008400831380013B302007840083138001F5
:10034000A00A902983120313A10130228312031300
:10035000A1080319302275224822013A031DB6294B
:100360000430831203132102031CA10A4822003A1D
:10037000031DBD2983120313A101AD22013A031D00
:10038000C9298312031305128B2383120313051645
:10039000A522D922013A031DD52903308312031364
:1003A00043020318D529C30AA522D922023A031D04
:1003B000E02983120313C3080319E029C303A5220C
:1003C0003A23013A03190222AB23043083120313A8
:1003D000210203189A23472483120313431C871214
:1003E00043188716C31C0712C31807166D23043061
:1003F000831203132102031CA6298B2383120313E8
:10040000A101A62983120313A301A40107308312BB
:100410000313240203182D2A9A2347247C238312D2
:100420000313A50108308312031325020318272A9A
:1004300080302307012083120313A2003B302507DD
:100440008400831322088000A30AA50A122A4724E5
:100450007C2383120313A40A062A9A2347247C2BA5
:1004600083120313A201083083120313220203181C
:10047000472A2B302207840083130008A30033305F
:1004800022078400831323088000A20A332A08006D
:10049000013083120313A5000130A400A20108302B
:1004A00083120313220203186C2A333022078400BC
:1004B00083130008A3002B30220784008313230832
:1004C0000006031DA50183120313A308031DA40145
:1004D00083120313A20A4F2A83120313240303195E
:1004E000A501831203132508080083120313A20138
:1004F000083083120313220203188A2A10302204C0
:10050000850000002B302207840083130609800039
:10051000A20A782A0800013083120313A300A20163
:1005200008308312031322020318A12A2B3022075A
:10053000840083130008031DA30183120313A20A7E
:10054000902A83120313230808008B22013A03190F
:10055000AC2A75226D23A52A0800013083120313EB
:10056000A300A20108308312031322020318D52A24
:100570002208033A031DC82A2B30831203132207D3
:10058000840083130008C03A0319D12AA301D12A99
:100590002B30831203132207840083130008031DEA
:1005A000A30183120313A20AB22A8312031323089E
:1005B0000800013083120313A300A401A201083034
:1005C0008312031322020318012B2208031DF42AAD
:1005D0002B30831203132207840083130008203A70
:1005E0000319FD2AA301FD2A2B30831203132207CE
:1005F000840083130008031DA30183120313A20ABE
:10060000DF2A83120313230B082B0230A400362B9E
:10061000013083120313A300A201083083120313D5
:1006200022020318302B2208033A031D232B2B3000
:10063000831203132207840083130008203A03194E
:100640002C2BA3012C2B2B308312031322078400A5
:1006500083130008031DA30183120313A20A0D2BA9
:1006600083120313230B362B0130A40083120313D0
:1006700024080800013083120313A300A2010830EC
:100680008312031322020318622B2208043A031D6B
:10069000552B2B3083120313220784008313000889
:1006A000083A03195E2BA3015E2B2B308312031330
:1006B0002207840083130008031DA3018312031380
:1006C000A20A3F2B8312031323080800831203138B
:1006D00081010B110B1D6A2B080083120313A20169
:1006E0000A3083120313220203187B2B6623831222
:1006F0000313A20A702B080083120313A6013230E1
:1007000083120313260203188A2B66238312031312
:10071000A60A7F2B080083120313A2016430831200
:10072000031322020318992B662383120313A20AD0
:100730008E2B080083120313AA01083083120313BF
:100740002A020318AA2B3B302A0784008313800156
:10075000AA0A9D2B08009A2383120313A4010830D0
:100760008312031324020318462CA801A9012B307D
:100770002407840083130008A200A3010830831219
:10078000031323020318422CA21F382CA5010830A2
:100790008312031325020318382C25082807A70005
:1007A000A60124080319EA2B013A0319F22B033A94
:1007B0000319FA2B013A0319032C073A03190C2CDD
:1007C000013A0319152C033A03191D2C013A031998
:1007D000262C2E2C831203132708012083120313C7
:1007E000A6002E2C8312031327087E2083120313E6
:1007F000A6002E2C40308312031327077E2083127D
:100800000313A6002E2C80308312031327077E20AB
:1008100083120313A6002E2CC03083120313270764
:100820007E2083120313A6002E2C831203132708A5
:100830001F2183120313A6002E2C403083120313B2
:1008400027071F2183120313A6002E2C403083128A
:1008500003132707012083120313A6003B308312E2
:10086000031325078400831326088004A50AC72BD9
:10087000031083120313A20D0830A8070318A90A56
:10088000A30ABE2B83120313A40AAF2B080008305F
:1008900083120313A60083120313A60803196D2CF9
:1008A0003A302607840083130008A700A80105300A
:1008B0008312031328020318672C271E8710271A98
:1008C000871407150310A70D0711A80A572C00005D
:1008D000000083120313A6034B2C83120313071487
:0808E0000000000007100800F1
:02400E003A3F37
:00000001FF
